{
  "_format": "hh-sol-artifact-1",
  "contractName": "NidContract",
  "sourceName": "contracts/NidConract.sol",
  "abi": [
    {
      "anonymous": false,
      "inputs": [
        {
          "indexed": false,
          "internalType": "address",
          "name": "recipient",
          "type": "address"
        },
        {
          "indexed": false,
          "internalType": "uint256",
          "name": "nid",
          "type": "uint256"
        }
      ],
      "name": "AddNidData",
      "type": "event"
    },
    {
      "inputs": [
        {
          "components": [
            {
              "internalType": "uint256",
              "name": "nid",
              "type": "uint256"
            },
            {
              "internalType": "address",
              "name": "username",
              "type": "address"
            },
            {
              "internalType": "string",
              "name": "nameEng",
              "type": "string"
            },
            {
              "internalType": "string",
              "name": "nameBangla",
              "type": "string"
            },
            {
              "internalType": "string",
              "name": "gender",
              "type": "string"
            },
            {
              "internalType": "string",
              "name": "bloodGroup",
              "type": "string"
            },
            {
              "internalType": "string",
              "name": "birthPlace",
              "type": "string"
            },
            {
              "internalType": "string",
              "name": "birthCertificateNumber",
              "type": "string"
            },
            {
              "internalType": "string",
              "name": "birthDate",
              "type": "string"
            },
            {
              "internalType": "string",
              "name": "fatherName",
              "type": "string"
            },
            {
              "internalType": "string",
              "name": "fatherNid",
              "type": "string"
            },
            {
              "internalType": "uint256",
              "name": "fatherYearOfDead",
              "type": "uint256"
            },
            {
              "internalType": "string",
              "name": "motherName",
              "type": "string"
            },
            {
              "internalType": "string",
              "name": "motherNid",
              "type": "string"
            },
            {
              "internalType": "uint256",
              "name": "motherYearOfDeadYear",
              "type": "uint256"
            },
            {
              "internalType": "bool",
              "name": "maritalStatus",
              "type": "bool"
            },
            {
              "internalType": "string",
              "name": "husbandOrWifeName",
              "type": "string"
            },
            {
              "internalType": "string",
              "name": "husbandOrWifeNid",
              "type": "string"
            },
            {
              "internalType": "uint256",
              "name": "husbandOrWifeDeadYear",
              "type": "uint256"
            },
            {
              "internalType": "string",
              "name": "education",
              "type": "string"
            },
            {
              "internalType": "string",
              "name": "occupation",
              "type": "string"
            },
            {
              "internalType": "bool",
              "name": "disability",
              "type": "bool"
            },
            {
              "internalType": "uint256",
              "name": "tinNumber",
              "type": "uint256"
            },
            {
              "internalType": "uint256",
              "name": "drivingLicenseNumber",
              "type": "uint256"
            },
            {
              "internalType": "string",
              "name": "religion",
              "type": "string"
            },
            {
              "internalType": "string",
              "name": "mobileNumber",
              "type": "string"
            },
            {
              "internalType": "string",
              "name": "presetDivision",
              "type": "string"
            },
            {
              "internalType": "string",
              "name": "permanentDivision",
              "type": "string"
            },
            {
              "internalType": "string",
              "name": "presetDistrict",
              "type": "string"
            },
            {
              "internalType": "string",
              "name": "permanentDistrict",
              "type": "string"
            },
            {
              "internalType": "string",
              "name": "presetUpazila",
              "type": "string"
            },
            {
              "internalType": "string",
              "name": "permanentUpazila",
              "type": "string"
            },
            {
              "internalType": "string",
              "name": "presentRmo",
              "type": "string"
            },
            {
              "internalType": "string",
              "name": "permanentRmo",
              "type": "string"
            },
            {
              "internalType": "string",
              "name": "presentCityCorporation",
              "type": "string"
            },
            {
              "internalType": "string",
              "name": "permanentCityCorporation",
              "type": "string"
            },
            {
              "internalType": "string",
              "name": "presentUnion",
              "type": "string"
            },
            {
              "internalType": "string",
              "name": "permanentUnion",
              "type": "string"
            },
            {
              "internalType": "string",
              "name": "permanentMahalla",
              "type": "string"
            },
            {
              "internalType": "string",
              "name": "presentMahalla",
              "type": "string"
            },
            {
              "internalType": "uint256",
              "name": "presentUnionWard",
              "type": "uint256"
            },
            {
              "internalType": "uint256",
              "name": "permanentUnionWard",
              "type": "uint256"
            },
            {
              "internalType": "string",
              "name": "presentVillageOrRoad",
              "type": "string"
            },
            {
              "internalType": "string",
              "name": "permanentVillageOrRoad",
              "type": "string"
            },
            {
              "internalType": "string",
              "name": "presentHoldingNumber",
              "type": "string"
            },
            {
              "internalType": "string",
              "name": "permanentHoldingNumber",
              "type": "string"
            },
            {
              "internalType": "string",
              "name": "presentPostOffice",
              "type": "string"
            },
            {
              "internalType": "string",
              "name": "permanentPostOffice",
              "type": "string"
            },
            {
              "internalType": "string",
              "name": "presentPostalCode",
              "type": "string"
            },
            {
              "internalType": "string",
              "name": "parmatentPostalCode",
              "type": "string"
            },
            {
              "internalType": "string",
              "name": "voterArea",
              "type": "string"
            },
            {
              "internalType": "string",
              "name": "imageUrl",
              "type": "string"
            },
            {
              "internalType": "string[]",
              "name": "eyerish",
              "type": "string[]"
            },
            {
              "internalType": "string[]",
              "name": "biomatric",
              "type": "string[]"
            },
            {
              "components": [
                {
                  "internalType": "string",
                  "name": "reporter",
                  "type": "string"
                },
                {
                  "internalType": "string",
                  "name": "disease",
                  "type": "string"
                }
              ],
              "internalType": "struct NidContract.MedicalData",
              "name": "medicalData",
              "type": "tuple"
            },
            {
              "components": [
                {
                  "internalType": "string",
                  "name": "reporter",
                  "type": "string"
                },
                {
                  "internalType": "string",
                  "name": "result",
                  "type": "string"
                },
                {
                  "internalType": "string",
                  "name": "class",
                  "type": "string"
                }
              ],
              "internalType": "struct NidContract.EducationData",
              "name": "educatonalData",
              "type": "tuple"
            }
          ],
          "internalType": "struct NidContract.NidData",
          "name": "payload",
          "type": "tuple"
        }
      ],
      "name": "addNidData",
      "outputs": [],
      "stateMutability": "nonpayable",
      "type": "function"
    },
    {
      "inputs": [],
      "name": "getAgentEntries",
      "outputs": [
        {
          "components": [
            {
              "internalType": "uint256",
              "name": "nid",
              "type": "uint256"
            },
            {
              "internalType": "address",
              "name": "username",
              "type": "address"
            },
            {
              "internalType": "string",
              "name": "nameEng",
              "type": "string"
            },
            {
              "internalType": "string",
              "name": "nameBangla",
              "type": "string"
            },
            {
              "internalType": "string",
              "name": "gender",
              "type": "string"
            },
            {
              "internalType": "string",
              "name": "bloodGroup",
              "type": "string"
            },
            {
              "internalType": "string",
              "name": "birthPlace",
              "type": "string"
            },
            {
              "internalType": "string",
              "name": "birthCertificateNumber",
              "type": "string"
            },
            {
              "internalType": "string",
              "name": "birthDate",
              "type": "string"
            },
            {
              "internalType": "string",
              "name": "fatherName",
              "type": "string"
            },
            {
              "internalType": "string",
              "name": "fatherNid",
              "type": "string"
            },
            {
              "internalType": "uint256",
              "name": "fatherYearOfDead",
              "type": "uint256"
            },
            {
              "internalType": "string",
              "name": "motherName",
              "type": "string"
            },
            {
              "internalType": "string",
              "name": "motherNid",
              "type": "string"
            },
            {
              "internalType": "uint256",
              "name": "motherYearOfDeadYear",
              "type": "uint256"
            },
            {
              "internalType": "bool",
              "name": "maritalStatus",
              "type": "bool"
            },
            {
              "internalType": "string",
              "name": "husbandOrWifeName",
              "type": "string"
            },
            {
              "internalType": "string",
              "name": "husbandOrWifeNid",
              "type": "string"
            },
            {
              "internalType": "uint256",
              "name": "husbandOrWifeDeadYear",
              "type": "uint256"
            },
            {
              "internalType": "string",
              "name": "education",
              "type": "string"
            },
            {
              "internalType": "string",
              "name": "occupation",
              "type": "string"
            },
            {
              "internalType": "bool",
              "name": "disability",
              "type": "bool"
            },
            {
              "internalType": "uint256",
              "name": "tinNumber",
              "type": "uint256"
            },
            {
              "internalType": "uint256",
              "name": "drivingLicenseNumber",
              "type": "uint256"
            },
            {
              "internalType": "string",
              "name": "religion",
              "type": "string"
            },
            {
              "internalType": "string",
              "name": "mobileNumber",
              "type": "string"
            },
            {
              "internalType": "string",
              "name": "presetDivision",
              "type": "string"
            },
            {
              "internalType": "string",
              "name": "permanentDivision",
              "type": "string"
            },
            {
              "internalType": "string",
              "name": "presetDistrict",
              "type": "string"
            },
            {
              "internalType": "string",
              "name": "permanentDistrict",
              "type": "string"
            },
            {
              "internalType": "string",
              "name": "presetUpazila",
              "type": "string"
            },
            {
              "internalType": "string",
              "name": "permanentUpazila",
              "type": "string"
            },
            {
              "internalType": "string",
              "name": "presentRmo",
              "type": "string"
            },
            {
              "internalType": "string",
              "name": "permanentRmo",
              "type": "string"
            },
            {
              "internalType": "string",
              "name": "presentCityCorporation",
              "type": "string"
            },
            {
              "internalType": "string",
              "name": "permanentCityCorporation",
              "type": "string"
            },
            {
              "internalType": "string",
              "name": "presentUnion",
              "type": "string"
            },
            {
              "internalType": "string",
              "name": "permanentUnion",
              "type": "string"
            },
            {
              "internalType": "string",
              "name": "permanentMahalla",
              "type": "string"
            },
            {
              "internalType": "string",
              "name": "presentMahalla",
              "type": "string"
            },
            {
              "internalType": "uint256",
              "name": "presentUnionWard",
              "type": "uint256"
            },
            {
              "internalType": "uint256",
              "name": "permanentUnionWard",
              "type": "uint256"
            },
            {
              "internalType": "string",
              "name": "presentVillageOrRoad",
              "type": "string"
            },
            {
              "internalType": "string",
              "name": "permanentVillageOrRoad",
              "type": "string"
            },
            {
              "internalType": "string",
              "name": "presentHoldingNumber",
              "type": "string"
            },
            {
              "internalType": "string",
              "name": "permanentHoldingNumber",
              "type": "string"
            },
            {
              "internalType": "string",
              "name": "presentPostOffice",
              "type": "string"
            },
            {
              "internalType": "string",
              "name": "permanentPostOffice",
              "type": "string"
            },
            {
              "internalType": "string",
              "name": "presentPostalCode",
              "type": "string"
            },
            {
              "internalType": "string",
              "name": "parmatentPostalCode",
              "type": "string"
            },
            {
              "internalType": "string",
              "name": "voterArea",
              "type": "string"
            },
            {
              "internalType": "string",
              "name": "imageUrl",
              "type": "string"
            },
            {
              "internalType": "string[]",
              "name": "eyerish",
              "type": "string[]"
            },
            {
              "internalType": "string[]",
              "name": "biomatric",
              "type": "string[]"
            },
            {
              "components": [
                {
                  "internalType": "string",
                  "name": "reporter",
                  "type": "string"
                },
                {
                  "internalType": "string",
                  "name": "disease",
                  "type": "string"
                }
              ],
              "internalType": "struct NidContract.MedicalData",
              "name": "medicalData",
              "type": "tuple"
            },
            {
              "components": [
                {
                  "internalType": "string",
                  "name": "reporter",
                  "type": "string"
                },
                {
                  "internalType": "string",
                  "name": "result",
                  "type": "string"
                },
                {
                  "internalType": "string",
                  "name": "class",
                  "type": "string"
                }
              ],
              "internalType": "struct NidContract.EducationData",
              "name": "educatonalData",
              "type": "tuple"
            }
          ],
          "internalType": "struct NidContract.NidData[]",
          "name": "",
          "type": "tuple[]"
        }
      ],
      "stateMutability": "view",
      "type": "function"
    },
    {
      "inputs": [
        {
          "internalType": "uint256",
          "name": "nid",
          "type": "uint256"
        }
      ],
      "name": "getSingleNid",
      "outputs": [
        {
          "components": [
            {
              "internalType": "uint256",
              "name": "nid",
              "type": "uint256"
            },
            {
              "internalType": "address",
              "name": "username",
              "type": "address"
            },
            {
              "internalType": "string",
              "name": "nameEng",
              "type": "string"
            },
            {
              "internalType": "string",
              "name": "nameBangla",
              "type": "string"
            },
            {
              "internalType": "string",
              "name": "gender",
              "type": "string"
            },
            {
              "internalType": "string",
              "name": "bloodGroup",
              "type": "string"
            },
            {
              "internalType": "string",
              "name": "birthPlace",
              "type": "string"
            },
            {
              "internalType": "string",
              "name": "birthCertificateNumber",
              "type": "string"
            },
            {
              "internalType": "string",
              "name": "birthDate",
              "type": "string"
            },
            {
              "internalType": "string",
              "name": "fatherName",
              "type": "string"
            },
            {
              "internalType": "string",
              "name": "fatherNid",
              "type": "string"
            },
            {
              "internalType": "uint256",
              "name": "fatherYearOfDead",
              "type": "uint256"
            },
            {
              "internalType": "string",
              "name": "motherName",
              "type": "string"
            },
            {
              "internalType": "string",
              "name": "motherNid",
              "type": "string"
            },
            {
              "internalType": "uint256",
              "name": "motherYearOfDeadYear",
              "type": "uint256"
            },
            {
              "internalType": "bool",
              "name": "maritalStatus",
              "type": "bool"
            },
            {
              "internalType": "string",
              "name": "husbandOrWifeName",
              "type": "string"
            },
            {
              "internalType": "string",
              "name": "husbandOrWifeNid",
              "type": "string"
            },
            {
              "internalType": "uint256",
              "name": "husbandOrWifeDeadYear",
              "type": "uint256"
            },
            {
              "internalType": "string",
              "name": "education",
              "type": "string"
            },
            {
              "internalType": "string",
              "name": "occupation",
              "type": "string"
            },
            {
              "internalType": "bool",
              "name": "disability",
              "type": "bool"
            },
            {
              "internalType": "uint256",
              "name": "tinNumber",
              "type": "uint256"
            },
            {
              "internalType": "uint256",
              "name": "drivingLicenseNumber",
              "type": "uint256"
            },
            {
              "internalType": "string",
              "name": "religion",
              "type": "string"
            },
            {
              "internalType": "string",
              "name": "mobileNumber",
              "type": "string"
            },
            {
              "internalType": "string",
              "name": "presetDivision",
              "type": "string"
            },
            {
              "internalType": "string",
              "name": "permanentDivision",
              "type": "string"
            },
            {
              "internalType": "string",
              "name": "presetDistrict",
              "type": "string"
            },
            {
              "internalType": "string",
              "name": "permanentDistrict",
              "type": "string"
            },
            {
              "internalType": "string",
              "name": "presetUpazila",
              "type": "string"
            },
            {
              "internalType": "string",
              "name": "permanentUpazila",
              "type": "string"
            },
            {
              "internalType": "string",
              "name": "presentRmo",
              "type": "string"
            },
            {
              "internalType": "string",
              "name": "permanentRmo",
              "type": "string"
            },
            {
              "internalType": "string",
              "name": "presentCityCorporation",
              "type": "string"
            },
            {
              "internalType": "string",
              "name": "permanentCityCorporation",
              "type": "string"
            },
            {
              "internalType": "string",
              "name": "presentUnion",
              "type": "string"
            },
            {
              "internalType": "string",
              "name": "permanentUnion",
              "type": "string"
            },
            {
              "internalType": "string",
              "name": "permanentMahalla",
              "type": "string"
            },
            {
              "internalType": "string",
              "name": "presentMahalla",
              "type": "string"
            },
            {
              "internalType": "uint256",
              "name": "presentUnionWard",
              "type": "uint256"
            },
            {
              "internalType": "uint256",
              "name": "permanentUnionWard",
              "type": "uint256"
            },
            {
              "internalType": "string",
              "name": "presentVillageOrRoad",
              "type": "string"
            },
            {
              "internalType": "string",
              "name": "permanentVillageOrRoad",
              "type": "string"
            },
            {
              "internalType": "string",
              "name": "presentHoldingNumber",
              "type": "string"
            },
            {
              "internalType": "string",
              "name": "permanentHoldingNumber",
              "type": "string"
            },
            {
              "internalType": "string",
              "name": "presentPostOffice",
              "type": "string"
            },
            {
              "internalType": "string",
              "name": "permanentPostOffice",
              "type": "string"
            },
            {
              "internalType": "string",
              "name": "presentPostalCode",
              "type": "string"
            },
            {
              "internalType": "string",
              "name": "parmatentPostalCode",
              "type": "string"
            },
            {
              "internalType": "string",
              "name": "voterArea",
              "type": "string"
            },
            {
              "internalType": "string",
              "name": "imageUrl",
              "type": "string"
            },
            {
              "internalType": "string[]",
              "name": "eyerish",
              "type": "string[]"
            },
            {
              "internalType": "string[]",
              "name": "biomatric",
              "type": "string[]"
            },
            {
              "components": [
                {
                  "internalType": "string",
                  "name": "reporter",
                  "type": "string"
                },
                {
                  "internalType": "string",
                  "name": "disease",
                  "type": "string"
                }
              ],
              "internalType": "struct NidContract.MedicalData",
              "name": "medicalData",
              "type": "tuple"
            },
            {
              "components": [
                {
                  "internalType": "string",
                  "name": "reporter",
                  "type": "string"
                },
                {
                  "internalType": "string",
                  "name": "result",
                  "type": "string"
                },
                {
                  "internalType": "string",
                  "name": "class",
                  "type": "string"
                }
              ],
              "internalType": "struct NidContract.EducationData",
              "name": "educatonalData",
              "type": "tuple"
            }
          ],
          "internalType": "struct NidContract.NidData",
          "name": "",
          "type": "tuple"
        }
      ],
      "stateMutability": "view",
      "type": "function"
    }
  ],
  "bytecode": "0x608060405234801561001057600080fd5b5061695880620000216000396000f3fe608060405234801561001057600080fd5b50600436106100415760003560e01c806315c51a7b146100465780637c1b3e4c1461007657806393db67f414610094575b600080fd5b610060600480360381019061005b919061574f565b6100b0565b60405161006d91906165a3565b60405180910390f35b61007e611e05565b60405161008b9190616581565b60405180910390f35b6100ae60048036038101906100a9919061570e565b613dd9565b005b6100b8614818565b600082815481106100f2577f4e487b7100000000000000000000000000000000000000000000000000000000600052603260045260246000fd5b90600052602060002090603b020160405180610700016040529081600082015481526020016001820160009054906101000a900473ffffffffffffffffffffffffffffffffffffffff1673ffffffffffffffffffffffffffffffffffffffff1673ffffffffffffffffffffffffffffffffffffffff16815260200160028201805461017c90616793565b80601f01602080910402602001604051908101604052809291908181526020018280546101a890616793565b80156101f55780601f106101ca576101008083540402835291602001916101f5565b820191906000526020600020905b8154815290600101906020018083116101d857829003601f168201915b5050505050815260200160038201805461020e90616793565b80601f016020809104026020016040519081016040528092919081815260200182805461023a90616793565b80156102875780601f1061025c57610100808354040283529160200191610287565b820191906000526020600020905b81548152906001019060200180831161026a57829003601f168201915b505050505081526020016004820180546102a090616793565b80601f01602080910402602001604051908101604052809291908181526020018280546102cc90616793565b80156103195780601f106102ee57610100808354040283529160200191610319565b820191906000526020600020905b8154815290600101906020018083116102fc57829003601f168201915b5050505050815260200160058201805461033290616793565b80601f016020809104026020016040519081016040528092919081815260200182805461035e90616793565b80156103ab5780601f10610380576101008083540402835291602001916103ab565b820191906000526020600020905b81548152906001019060200180831161038e57829003601f168201915b505050505081526020016006820180546103c490616793565b80601f01602080910402602001604051908101604052809291908181526020018280546103f090616793565b801561043d5780601f106104125761010080835404028352916020019161043d565b820191906000526020600020905b81548152906001019060200180831161042057829003601f168201915b5050505050815260200160078201805461045690616793565b80601f016020809104026020016040519081016040528092919081815260200182805461048290616793565b80156104cf5780601f106104a4576101008083540402835291602001916104cf565b820191906000526020600020905b8154815290600101906020018083116104b257829003601f168201915b505050505081526020016008820180546104e890616793565b80601f016020809104026020016040519081016040528092919081815260200182805461051490616793565b80156105615780601f1061053657610100808354040283529160200191610561565b820191906000526020600020905b81548152906001019060200180831161054457829003601f168201915b5050505050815260200160098201805461057a90616793565b80601f01602080910402602001604051908101604052809291908181526020018280546105a690616793565b80156105f35780601f106105c8576101008083540402835291602001916105f3565b820191906000526020600020905b8154815290600101906020018083116105d657829003601f168201915b50505050508152602001600a8201805461060c90616793565b80601f016020809104026020016040519081016040528092919081815260200182805461063890616793565b80156106855780601f1061065a57610100808354040283529160200191610685565b820191906000526020600020905b81548152906001019060200180831161066857829003601f168201915b50505050508152602001600b8201548152602001600c820180546106a890616793565b80601f01602080910402602001604051908101604052809291908181526020018280546106d490616793565b80156107215780601f106106f657610100808354040283529160200191610721565b820191906000526020600020905b81548152906001019060200180831161070457829003601f168201915b50505050508152602001600d8201805461073a90616793565b80601f016020809104026020016040519081016040528092919081815260200182805461076690616793565b80156107b35780601f10610788576101008083540402835291602001916107b3565b820191906000526020600020905b81548152906001019060200180831161079657829003601f168201915b50505050508152602001600e8201548152602001600f820160009054906101000a900460ff161515151581526020016010820180546107f190616793565b80601f016020809104026020016040519081016040528092919081815260200182805461081d90616793565b801561086a5780601f1061083f5761010080835404028352916020019161086a565b820191906000526020600020905b81548152906001019060200180831161084d57829003601f168201915b5050505050815260200160118201805461088390616793565b80601f01602080910402602001604051908101604052809291908181526020018280546108af90616793565b80156108fc5780601f106108d1576101008083540402835291602001916108fc565b820191906000526020600020905b8154815290600101906020018083116108df57829003601f168201915b505050505081526020016012820154815260200160138201805461091f90616793565b80601f016020809104026020016040519081016040528092919081815260200182805461094b90616793565b80156109985780601f1061096d57610100808354040283529160200191610998565b820191906000526020600020905b81548152906001019060200180831161097b57829003601f168201915b505050505081526020016014820180546109b190616793565b80601f01602080910402602001604051908101604052809291908181526020018280546109dd90616793565b8015610a2a5780601f106109ff57610100808354040283529160200191610a2a565b820191906000526020600020905b815481529060010190602001808311610a0d57829003601f168201915b505050505081526020016015820160009054906101000a900460ff161515151581526020016016820154815260200160178201548152602001601882018054610a7290616793565b80601f0160208091040260200160405190810160405280929190818152602001828054610a9e90616793565b8015610aeb5780601f10610ac057610100808354040283529160200191610aeb565b820191906000526020600020905b815481529060010190602001808311610ace57829003601f168201915b50505050508152602001601982018054610b0490616793565b80601f0160208091040260200160405190810160405280929190818152602001828054610b3090616793565b8015610b7d5780601f10610b5257610100808354040283529160200191610b7d565b820191906000526020600020905b815481529060010190602001808311610b6057829003601f168201915b50505050508152602001601a82018054610b9690616793565b80601f0160208091040260200160405190810160405280929190818152602001828054610bc290616793565b8015610c0f5780601f10610be457610100808354040283529160200191610c0f565b820191906000526020600020905b815481529060010190602001808311610bf257829003601f168201915b50505050508152602001601b82018054610c2890616793565b80601f0160208091040260200160405190810160405280929190818152602001828054610c5490616793565b8015610ca15780601f10610c7657610100808354040283529160200191610ca1565b820191906000526020600020905b815481529060010190602001808311610c8457829003601f168201915b50505050508152602001601c82018054610cba90616793565b80601f0160208091040260200160405190810160405280929190818152602001828054610ce690616793565b8015610d335780601f10610d0857610100808354040283529160200191610d33565b820191906000526020600020905b815481529060010190602001808311610d1657829003601f168201915b50505050508152602001601d82018054610d4c90616793565b80601f0160208091040260200160405190810160405280929190818152602001828054610d7890616793565b8015610dc55780601f10610d9a57610100808354040283529160200191610dc5565b820191906000526020600020905b815481529060010190602001808311610da857829003601f168201915b50505050508152602001601e82018054610dde90616793565b80601f0160208091040260200160405190810160405280929190818152602001828054610e0a90616793565b8015610e575780601f10610e2c57610100808354040283529160200191610e57565b820191906000526020600020905b815481529060010190602001808311610e3a57829003601f168201915b50505050508152602001601f82018054610e7090616793565b80601f0160208091040260200160405190810160405280929190818152602001828054610e9c90616793565b8015610ee95780601f10610ebe57610100808354040283529160200191610ee9565b820191906000526020600020905b815481529060010190602001808311610ecc57829003601f168201915b50505050508152602001602082018054610f0290616793565b80601f0160208091040260200160405190810160405280929190818152602001828054610f2e90616793565b8015610f7b5780601f10610f5057610100808354040283529160200191610f7b565b820191906000526020600020905b815481529060010190602001808311610f5e57829003601f168201915b50505050508152602001602182018054610f9490616793565b80601f0160208091040260200160405190810160405280929190818152602001828054610fc090616793565b801561100d5780601f10610fe25761010080835404028352916020019161100d565b820191906000526020600020905b815481529060010190602001808311610ff057829003601f168201915b5050505050815260200160228201805461102690616793565b80601f016020809104026020016040519081016040528092919081815260200182805461105290616793565b801561109f5780601f106110745761010080835404028352916020019161109f565b820191906000526020600020905b81548152906001019060200180831161108257829003601f168201915b505050505081526020016023820180546110b890616793565b80601f01602080910402602001604051908101604052809291908181526020018280546110e490616793565b80156111315780601f1061110657610100808354040283529160200191611131565b820191906000526020600020905b81548152906001019060200180831161111457829003601f168201915b5050505050815260200160248201805461114a90616793565b80601f016020809104026020016040519081016040528092919081815260200182805461117690616793565b80156111c35780601f10611198576101008083540402835291602001916111c3565b820191906000526020600020905b8154815290600101906020018083116111a657829003601f168201915b505050505081526020016025820180546111dc90616793565b80601f016020809104026020016040519081016040528092919081815260200182805461120890616793565b80156112555780601f1061122a57610100808354040283529160200191611255565b820191906000526020600020905b81548152906001019060200180831161123857829003601f168201915b5050505050815260200160268201805461126e90616793565b80601f016020809104026020016040519081016040528092919081815260200182805461129a90616793565b80156112e75780601f106112bc576101008083540402835291602001916112e7565b820191906000526020600020905b8154815290600101906020018083116112ca57829003601f168201915b5050505050815260200160278201805461130090616793565b80601f016020809104026020016040519081016040528092919081815260200182805461132c90616793565b80156113795780601f1061134e57610100808354040283529160200191611379565b820191906000526020600020905b81548152906001019060200180831161135c57829003601f168201915b505050505081526020016028820154815260200160298201548152602001602a820180546113a690616793565b80601f01602080910402602001604051908101604052809291908181526020018280546113d290616793565b801561141f5780601f106113f45761010080835404028352916020019161141f565b820191906000526020600020905b81548152906001019060200180831161140257829003601f168201915b50505050508152602001602b8201805461143890616793565b80601f016020809104026020016040519081016040528092919081815260200182805461146490616793565b80156114b15780601f10611486576101008083540402835291602001916114b1565b820191906000526020600020905b81548152906001019060200180831161149457829003601f168201915b50505050508152602001602c820180546114ca90616793565b80601f01602080910402602001604051908101604052809291908181526020018280546114f690616793565b80156115435780601f1061151857610100808354040283529160200191611543565b820191906000526020600020905b81548152906001019060200180831161152657829003601f168201915b50505050508152602001602d8201805461155c90616793565b80601f016020809104026020016040519081016040528092919081815260200182805461158890616793565b80156115d55780601f106115aa576101008083540402835291602001916115d5565b820191906000526020600020905b8154815290600101906020018083116115b857829003601f168201915b50505050508152602001602e820180546115ee90616793565b80601f016020809104026020016040519081016040528092919081815260200182805461161a90616793565b80156116675780601f1061163c57610100808354040283529160200191611667565b820191906000526020600020905b81548152906001019060200180831161164a57829003601f168201915b50505050508152602001602f8201805461168090616793565b80601f01602080910402602001604051908101604052809291908181526020018280546116ac90616793565b80156116f95780601f106116ce576101008083540402835291602001916116f9565b820191906000526020600020905b8154815290600101906020018083116116dc57829003601f168201915b5050505050815260200160308201805461171290616793565b80601f016020809104026020016040519081016040528092919081815260200182805461173e90616793565b801561178b5780601f106117605761010080835404028352916020019161178b565b820191906000526020600020905b81548152906001019060200180831161176e57829003601f168201915b505050505081526020016031820180546117a490616793565b80601f01602080910402602001604051908101604052809291908181526020018280546117d090616793565b801561181d5780601f106117f25761010080835404028352916020019161181d565b820191906000526020600020905b81548152906001019060200180831161180057829003601f168201915b5050505050815260200160328201805461183690616793565b80601f016020809104026020016040519081016040528092919081815260200182805461186290616793565b80156118af5780601f10611884576101008083540402835291602001916118af565b820191906000526020600020905b81548152906001019060200180831161189257829003601f168201915b505050505081526020016033820180546118c890616793565b80601f01602080910402602001604051908101604052809291908181526020018280546118f490616793565b80156119415780601f1061191657610100808354040283529160200191611941565b820191906000526020600020905b81548152906001019060200180831161192457829003601f168201915b5050505050815260200160348201805480602002602001604051908101604052809291908181526020016000905b82821015611a1b57838290600052602060002001805461198e90616793565b80601f01602080910402602001604051908101604052809291908181526020018280546119ba90616793565b8015611a075780601f106119dc57610100808354040283529160200191611a07565b820191906000526020600020905b8154815290600101906020018083116119ea57829003601f168201915b50505050508152602001906001019061196f565b50505050815260200160358201805480602002602001604051908101604052809291908181526020016000905b82821015611af4578382906000526020600020018054611a6790616793565b80601f0160208091040260200160405190810160405280929190818152602001828054611a9390616793565b8015611ae05780601f10611ab557610100808354040283529160200191611ae0565b820191906000526020600020905b815481529060010190602001808311611ac357829003601f168201915b505050505081526020019060010190611a48565b50505050815260200160368201604051806040016040529081600082018054611b1c90616793565b80601f0160208091040260200160405190810160405280929190818152602001828054611b4890616793565b8015611b955780601f10611b6a57610100808354040283529160200191611b95565b820191906000526020600020905b815481529060010190602001808311611b7857829003601f168201915b50505050508152602001600182018054611bae90616793565b80601f0160208091040260200160405190810160405280929190818152602001828054611bda90616793565b8015611c275780601f10611bfc57610100808354040283529160200191611c27565b820191906000526020600020905b815481529060010190602001808311611c0a57829003601f168201915b505050505081525050815260200160388201604051806060016040529081600082018054611c5490616793565b80601f0160208091040260200160405190810160405280929190818152602001828054611c8090616793565b8015611ccd5780601f10611ca257610100808354040283529160200191611ccd565b820191906000526020600020905b815481529060010190602001808311611cb057829003601f168201915b50505050508152602001600182018054611ce690616793565b80601f0160208091040260200160405190810160405280929190818152602001828054611d1290616793565b8015611d5f5780601f10611d3457610100808354040283529160200191611d5f565b820191906000526020600020905b815481529060010190602001808311611d4257829003601f168201915b50505050508152602001600282018054611d7890616793565b80601f0160208091040260200160405190810160405280929190818152602001828054611da490616793565b8015611df15780601f10611dc657610100808354040283529160200191611df1565b820191906000526020600020905b815481529060010190602001808311611dd457829003601f168201915b505050505081525050815250509050919050565b60606000808054905067ffffffffffffffff811115611e4d577f4e487b7100000000000000000000000000000000000000000000000000000000600052604160045260246000fd5b604051908082528060200260200182016040528015611e8657816020015b611e73614818565b815260200190600190039081611e6b5790505b5090506000805b600080549050811015613cad573373ffffffffffffffffffffffffffffffffffffffff166001600083815260200190815260200160002060009054906101000a900473ffffffffffffffffffffffffffffffffffffffff1673ffffffffffffffffffffffffffffffffffffffff161415613c9a5760008181548110611f3b577f4e487b7100000000000000000000000000000000000000000000000000000000600052603260045260246000fd5b90600052602060002090603b020160405180610700016040529081600082015481526020016001820160009054906101000a900473ffffffffffffffffffffffffffffffffffffffff1673ffffffffffffffffffffffffffffffffffffffff1673ffffffffffffffffffffffffffffffffffffffff168152602001600282018054611fc590616793565b80601f0160208091040260200160405190810160405280929190818152602001828054611ff190616793565b801561203e5780601f106120135761010080835404028352916020019161203e565b820191906000526020600020905b81548152906001019060200180831161202157829003601f168201915b5050505050815260200160038201805461205790616793565b80601f016020809104026020016040519081016040528092919081815260200182805461208390616793565b80156120d05780601f106120a5576101008083540402835291602001916120d0565b820191906000526020600020905b8154815290600101906020018083116120b357829003601f168201915b505050505081526020016004820180546120e990616793565b80601f016020809104026020016040519081016040528092919081815260200182805461211590616793565b80156121625780601f1061213757610100808354040283529160200191612162565b820191906000526020600020905b81548152906001019060200180831161214557829003601f168201915b5050505050815260200160058201805461217b90616793565b80601f01602080910402602001604051908101604052809291908181526020018280546121a790616793565b80156121f45780601f106121c9576101008083540402835291602001916121f4565b820191906000526020600020905b8154815290600101906020018083116121d757829003601f168201915b5050505050815260200160068201805461220d90616793565b80601f016020809104026020016040519081016040528092919081815260200182805461223990616793565b80156122865780601f1061225b57610100808354040283529160200191612286565b820191906000526020600020905b81548152906001019060200180831161226957829003601f168201915b5050505050815260200160078201805461229f90616793565b80601f01602080910402602001604051908101604052809291908181526020018280546122cb90616793565b80156123185780601f106122ed57610100808354040283529160200191612318565b820191906000526020600020905b8154815290600101906020018083116122fb57829003601f168201915b5050505050815260200160088201805461233190616793565b80601f016020809104026020016040519081016040528092919081815260200182805461235d90616793565b80156123aa5780601f1061237f576101008083540402835291602001916123aa565b820191906000526020600020905b81548152906001019060200180831161238d57829003601f168201915b505050505081526020016009820180546123c390616793565b80601f01602080910402602001604051908101604052809291908181526020018280546123ef90616793565b801561243c5780601f106124115761010080835404028352916020019161243c565b820191906000526020600020905b81548152906001019060200180831161241f57829003601f168201915b50505050508152602001600a8201805461245590616793565b80601f016020809104026020016040519081016040528092919081815260200182805461248190616793565b80156124ce5780601f106124a3576101008083540402835291602001916124ce565b820191906000526020600020905b8154815290600101906020018083116124b157829003601f168201915b50505050508152602001600b8201548152602001600c820180546124f190616793565b80601f016020809104026020016040519081016040528092919081815260200182805461251d90616793565b801561256a5780601f1061253f5761010080835404028352916020019161256a565b820191906000526020600020905b81548152906001019060200180831161254d57829003601f168201915b50505050508152602001600d8201805461258390616793565b80601f01602080910402602001604051908101604052809291908181526020018280546125af90616793565b80156125fc5780601f106125d1576101008083540402835291602001916125fc565b820191906000526020600020905b8154815290600101906020018083116125df57829003601f168201915b50505050508152602001600e8201548152602001600f820160009054906101000a900460ff1615151515815260200160108201805461263a90616793565b80601f016020809104026020016040519081016040528092919081815260200182805461266690616793565b80156126b35780601f10612688576101008083540402835291602001916126b3565b820191906000526020600020905b81548152906001019060200180831161269657829003601f168201915b505050505081526020016011820180546126cc90616793565b80601f01602080910402602001604051908101604052809291908181526020018280546126f890616793565b80156127455780601f1061271a57610100808354040283529160200191612745565b820191906000526020600020905b81548152906001019060200180831161272857829003601f168201915b505050505081526020016012820154815260200160138201805461276890616793565b80601f016020809104026020016040519081016040528092919081815260200182805461279490616793565b80156127e15780601f106127b6576101008083540402835291602001916127e1565b820191906000526020600020905b8154815290600101906020018083116127c457829003601f168201915b505050505081526020016014820180546127fa90616793565b80601f016020809104026020016040519081016040528092919081815260200182805461282690616793565b80156128735780601f1061284857610100808354040283529160200191612873565b820191906000526020600020905b81548152906001019060200180831161285657829003601f168201915b505050505081526020016015820160009054906101000a900460ff1615151515815260200160168201548152602001601782015481526020016018820180546128bb90616793565b80601f01602080910402602001604051908101604052809291908181526020018280546128e790616793565b80156129345780601f1061290957610100808354040283529160200191612934565b820191906000526020600020905b81548152906001019060200180831161291757829003601f168201915b5050505050815260200160198201805461294d90616793565b80601f016020809104026020016040519081016040528092919081815260200182805461297990616793565b80156129c65780601f1061299b576101008083540402835291602001916129c6565b820191906000526020600020905b8154815290600101906020018083116129a957829003601f168201915b50505050508152602001601a820180546129df90616793565b80601f0160208091040260200160405190810160405280929190818152602001828054612a0b90616793565b8015612a585780601f10612a2d57610100808354040283529160200191612a58565b820191906000526020600020905b815481529060010190602001808311612a3b57829003601f168201915b50505050508152602001601b82018054612a7190616793565b80601f0160208091040260200160405190810160405280929190818152602001828054612a9d90616793565b8015612aea5780601f10612abf57610100808354040283529160200191612aea565b820191906000526020600020905b815481529060010190602001808311612acd57829003601f168201915b50505050508152602001601c82018054612b0390616793565b80601f0160208091040260200160405190810160405280929190818152602001828054612b2f90616793565b8015612b7c5780601f10612b5157610100808354040283529160200191612b7c565b820191906000526020600020905b815481529060010190602001808311612b5f57829003601f168201915b50505050508152602001601d82018054612b9590616793565b80601f0160208091040260200160405190810160405280929190818152602001828054612bc190616793565b8015612c0e5780601f10612be357610100808354040283529160200191612c0e565b820191906000526020600020905b815481529060010190602001808311612bf157829003601f168201915b50505050508152602001601e82018054612c2790616793565b80601f0160208091040260200160405190810160405280929190818152602001828054612c5390616793565b8015612ca05780601f10612c7557610100808354040283529160200191612ca0565b820191906000526020600020905b815481529060010190602001808311612c8357829003601f168201915b50505050508152602001601f82018054612cb990616793565b80601f0160208091040260200160405190810160405280929190818152602001828054612ce590616793565b8015612d325780601f10612d0757610100808354040283529160200191612d32565b820191906000526020600020905b815481529060010190602001808311612d1557829003601f168201915b50505050508152602001602082018054612d4b90616793565b80601f0160208091040260200160405190810160405280929190818152602001828054612d7790616793565b8015612dc45780601f10612d9957610100808354040283529160200191612dc4565b820191906000526020600020905b815481529060010190602001808311612da757829003601f168201915b50505050508152602001602182018054612ddd90616793565b80601f0160208091040260200160405190810160405280929190818152602001828054612e0990616793565b8015612e565780601f10612e2b57610100808354040283529160200191612e56565b820191906000526020600020905b815481529060010190602001808311612e3957829003601f168201915b50505050508152602001602282018054612e6f90616793565b80601f0160208091040260200160405190810160405280929190818152602001828054612e9b90616793565b8015612ee85780601f10612ebd57610100808354040283529160200191612ee8565b820191906000526020600020905b815481529060010190602001808311612ecb57829003601f168201915b50505050508152602001602382018054612f0190616793565b80601f0160208091040260200160405190810160405280929190818152602001828054612f2d90616793565b8015612f7a5780601f10612f4f57610100808354040283529160200191612f7a565b820191906000526020600020905b815481529060010190602001808311612f5d57829003601f168201915b50505050508152602001602482018054612f9390616793565b80601f0160208091040260200160405190810160405280929190818152602001828054612fbf90616793565b801561300c5780601f10612fe15761010080835404028352916020019161300c565b820191906000526020600020905b815481529060010190602001808311612fef57829003601f168201915b5050505050815260200160258201805461302590616793565b80601f016020809104026020016040519081016040528092919081815260200182805461305190616793565b801561309e5780601f106130735761010080835404028352916020019161309e565b820191906000526020600020905b81548152906001019060200180831161308157829003601f168201915b505050505081526020016026820180546130b790616793565b80601f01602080910402602001604051908101604052809291908181526020018280546130e390616793565b80156131305780601f1061310557610100808354040283529160200191613130565b820191906000526020600020905b81548152906001019060200180831161311357829003601f168201915b5050505050815260200160278201805461314990616793565b80601f016020809104026020016040519081016040528092919081815260200182805461317590616793565b80156131c25780601f10613197576101008083540402835291602001916131c2565b820191906000526020600020905b8154815290600101906020018083116131a557829003601f168201915b505050505081526020016028820154815260200160298201548152602001602a820180546131ef90616793565b80601f016020809104026020016040519081016040528092919081815260200182805461321b90616793565b80156132685780601f1061323d57610100808354040283529160200191613268565b820191906000526020600020905b81548152906001019060200180831161324b57829003601f168201915b50505050508152602001602b8201805461328190616793565b80601f01602080910402602001604051908101604052809291908181526020018280546132ad90616793565b80156132fa5780601f106132cf576101008083540402835291602001916132fa565b820191906000526020600020905b8154815290600101906020018083116132dd57829003601f168201915b50505050508152602001602c8201805461331390616793565b80601f016020809104026020016040519081016040528092919081815260200182805461333f90616793565b801561338c5780601f106133615761010080835404028352916020019161338c565b820191906000526020600020905b81548152906001019060200180831161336f57829003601f168201915b50505050508152602001602d820180546133a590616793565b80601f01602080910402602001604051908101604052809291908181526020018280546133d190616793565b801561341e5780601f106133f35761010080835404028352916020019161341e565b820191906000526020600020905b81548152906001019060200180831161340157829003601f168201915b50505050508152602001602e8201805461343790616793565b80601f016020809104026020016040519081016040528092919081815260200182805461346390616793565b80156134b05780601f10613485576101008083540402835291602001916134b0565b820191906000526020600020905b81548152906001019060200180831161349357829003601f168201915b50505050508152602001602f820180546134c990616793565b80601f01602080910402602001604051908101604052809291908181526020018280546134f590616793565b80156135425780601f1061351757610100808354040283529160200191613542565b820191906000526020600020905b81548152906001019060200180831161352557829003601f168201915b5050505050815260200160308201805461355b90616793565b80601f016020809104026020016040519081016040528092919081815260200182805461358790616793565b80156135d45780601f106135a9576101008083540402835291602001916135d4565b820191906000526020600020905b8154815290600101906020018083116135b757829003601f168201915b505050505081526020016031820180546135ed90616793565b80601f016020809104026020016040519081016040528092919081815260200182805461361990616793565b80156136665780601f1061363b57610100808354040283529160200191613666565b820191906000526020600020905b81548152906001019060200180831161364957829003601f168201915b5050505050815260200160328201805461367f90616793565b80601f01602080910402602001604051908101604052809291908181526020018280546136ab90616793565b80156136f85780601f106136cd576101008083540402835291602001916136f8565b820191906000526020600020905b8154815290600101906020018083116136db57829003601f168201915b5050505050815260200160338201805461371190616793565b80601f016020809104026020016040519081016040528092919081815260200182805461373d90616793565b801561378a5780601f1061375f5761010080835404028352916020019161378a565b820191906000526020600020905b81548152906001019060200180831161376d57829003601f168201915b5050505050815260200160348201805480602002602001604051908101604052809291908181526020016000905b828210156138645783829060005260206000200180546137d790616793565b80601f016020809104026020016040519081016040528092919081815260200182805461380390616793565b80156138505780601f1061382557610100808354040283529160200191613850565b820191906000526020600020905b81548152906001019060200180831161383357829003601f168201915b5050505050815260200190600101906137b8565b50505050815260200160358201805480602002602001604051908101604052809291908181526020016000905b8282101561393d5783829060005260206000200180546138b090616793565b80601f01602080910402602001604051908101604052809291908181526020018280546138dc90616793565b80156139295780601f106138fe57610100808354040283529160200191613929565b820191906000526020600020905b81548152906001019060200180831161390c57829003601f168201915b505050505081526020019060010190613891565b5050505081526020016036820160405180604001604052908160008201805461396590616793565b80601f016020809104026020016040519081016040528092919081815260200182805461399190616793565b80156139de5780601f106139b3576101008083540402835291602001916139de565b820191906000526020600020905b8154815290600101906020018083116139c157829003601f168201915b505050505081526020016001820180546139f790616793565b80601f0160208091040260200160405190810160405280929190818152602001828054613a2390616793565b8015613a705780601f10613a4557610100808354040283529160200191613a70565b820191906000526020600020905b815481529060010190602001808311613a5357829003601f168201915b505050505081525050815260200160388201604051806060016040529081600082018054613a9d90616793565b80601f0160208091040260200160405190810160405280929190818152602001828054613ac990616793565b8015613b165780601f10613aeb57610100808354040283529160200191613b16565b820191906000526020600020905b815481529060010190602001808311613af957829003601f168201915b50505050508152602001600182018054613b2f90616793565b80601f0160208091040260200160405190810160405280929190818152602001828054613b5b90616793565b8015613ba85780601f10613b7d57610100808354040283529160200191613ba8565b820191906000526020600020905b815481529060010190602001808311613b8b57829003601f168201915b50505050508152602001600282018054613bc190616793565b80601f0160208091040260200160405190810160405280929190818152602001828054613bed90616793565b8015613c3a5780601f10613c0f57610100808354040283529160200191613c3a565b820191906000526020600020905b815481529060010190602001808311613c1d57829003601f168201915b50505050508152505081525050838381518110613c80577f4e487b7100000000000000000000000000000000000000000000000000000000600052603260045260246000fd5b60200260200101819052508180613c96906167f6565b9250505b8080613ca5906167f6565b915050611e8d565b5060008167ffffffffffffffff811115613cf0577f4e487b7100000000000000000000000000000000000000000000000000000000600052604160045260246000fd5b604051908082528060200260200182016040528015613d2957816020015b613d16614818565b815260200190600190039081613d0e5790505b50905060005b82811015613dcf57838181518110613d70577f4e487b7100000000000000000000000000000000000000000000000000000000600052603260045260246000fd5b6020026020010151828281518110613db1577f4e487b7100000000000000000000000000000000000000000000000000000000600052603260045260246000fd5b60200260200101819052508080613dc7906167f6565b915050613d2f565b5080935050505090565b6000633b9aca009050600080805490501115613e4f5760006001600080549050613e0391906166d5565b81548110613e3a577f4e487b7100000000000000000000000000000000000000000000000000000000600052603260045260246000fd5b90600052602060002090603b02016000015490505b6000604051806107000160405280846000015181526020013373ffffffffffffffffffffffffffffffffffffffff1681526020018460400151815260200184606001518152602001846080015181526020018460a0015181526020018460c0015181526020018460e00151815260200184610100015181526020018461012001518152602001846101400151815260200184610160015181526020018461018001518152602001846101a001518152602001846101c001518152602001846101e001511515815260200184610200015181526020018461022001518152602001846102400151815260200184610260015181526020018461028001518152602001846102a0015115158152602001846102c001518152602001846102e00151815260200184610300015181526020018461032001518152602001846103400151815260200184610360015181526020018461038001518152602001846103a001518152602001846103c001518152602001846103e00151815260200184610400015181526020018461042001518152602001846104400151815260200184610460015181526020018461048001518152602001846104a001518152602001846104e001518152602001846104c00151815260200184610500015181526020018461052001518152602001846105400151815260200184610560015181526020018461058001518152602001846105a001518152602001846105c001518152602001846105e00151815260200184610600015181526020018461062001518152602001846106400151815260200184610660015181526020018461068001518152602001846106a001518152602001846106c001518152602001846106e0015181525090806001815401808255809150506001900390600052602060002090603b02016000909190919091506000820151816000015560208201518160010160006101000a81548173ffffffffffffffffffffffffffffffffffffffff021916908373ffffffffffffffffffffffffffffffffffffffff16021790555060408201518160020190805190602001906141679291906149d3565b5060608201518160030190805190602001906141849291906149d3565b5060808201518160040190805190602001906141a19291906149d3565b5060a08201518160050190805190602001906141be9291906149d3565b5060c08201518160060190805190602001906141db9291906149d3565b5060e08201518160070190805190602001906141f89291906149d3565b506101008201518160080190805190602001906142169291906149d3565b506101208201518160090190805190602001906142349291906149d3565b5061014082015181600a0190805190602001906142529291906149d3565b5061016082015181600b015561018082015181600c01908051906020019061427b9291906149d3565b506101a082015181600d0190805190602001906142999291906149d3565b506101c082015181600e01556101e082015181600f0160006101000a81548160ff0219169083151502179055506102008201518160100190805190602001906142e39291906149d3565b506102208201518160110190805190602001906143019291906149d3565b50610240820151816012015561026082015181601301908051906020019061432a9291906149d3565b506102808201518160140190805190602001906143489291906149d3565b506102a08201518160150160006101000a81548160ff0219169083151502179055506102c082015181601601556102e0820151816017015561030082015181601801908051906020019061439d9291906149d3565b506103208201518160190190805190602001906143bb9291906149d3565b5061034082015181601a0190805190602001906143d99291906149d3565b5061036082015181601b0190805190602001906143f79291906149d3565b5061038082015181601c0190805190602001906144159291906149d3565b506103a082015181601d0190805190602001906144339291906149d3565b506103c082015181601e0190805190602001906144519291906149d3565b506103e082015181601f01908051906020019061446f9291906149d3565b5061040082015181602001908051906020019061448d9291906149d3565b506104208201518160210190805190602001906144ab9291906149d3565b506104408201518160220190805190602001906144c99291906149d3565b506104608201518160230190805190602001906144e79291906149d3565b506104808201518160240190805190602001906145059291906149d3565b506104a08201518160250190805190602001906145239291906149d3565b506104c08201518160260190805190602001906145419291906149d3565b506104e082015181602701908051906020019061455f9291906149d3565b506105008201518160280155610520820151816029015561054082015181602a0190805190602001906145939291906149d3565b5061056082015181602b0190805190602001906145b19291906149d3565b5061058082015181602c0190805190602001906145cf9291906149d3565b506105a082015181602d0190805190602001906145ed9291906149d3565b506105c082015181602e01908051906020019061460b9291906149d3565b506105e082015181602f0190805190602001906146299291906149d3565b506106008201518160300190805190602001906146479291906149d3565b506106208201518160310190805190602001906146659291906149d3565b506106408201518160320190805190602001906146839291906149d3565b506106608201518160330190805190602001906146a19291906149d3565b506106808201518160340190805190602001906146bf929190614a59565b506106a08201518160350190805190602001906146dd929190614a59565b506106c08201518160360160008201518160000190805190602001906147049291906149d3565b5060208201518160010190805190602001906147219291906149d3565b5050506106e082015181603801600082015181600001908051906020019061474a9291906149d3565b5060208201518160010190805190602001906147679291906149d3565b5060408201518160020190805190602001906147849291906149d3565b5050505050336001600083815260200190815260200160002060006101000a81548173ffffffffffffffffffffffffffffffffffffffff021916908373ffffffffffffffffffffffffffffffffffffffff1602179055507fd9581574f2a7a14a8334d2d6cf13f97934ff0657116b362300b07399a877f131338260405161480c929190616558565b60405180910390a15050565b60405180610700016040528060008152602001600073ffffffffffffffffffffffffffffffffffffffff16815260200160608152602001606081526020016060815260200160608152602001606081526020016060815260200160608152602001606081526020016060815260200160008152602001606081526020016060815260200160008152602001600015158152602001606081526020016060815260200160008152602001606081526020016060815260200160001515815260200160008152602001600081526020016060815260200160608152602001606081526020016060815260200160608152602001606081526020016060815260200160608152602001606081526020016060815260200160608152602001606081526020016060815260200160608152602001606081526020016060815260200160008152602001600081526020016060815260200160608152602001606081526020016060815260200160608152602001606081526020016060815260200160608152602001606081526020016060815260200160608152602001606081526020016149c0614ab9565b81526020016149cd614ad3565b81525090565b8280546149df90616793565b90600052602060002090601f016020900481019282614a015760008555614a48565b82601f10614a1a57805160ff1916838001178555614a48565b82800160010185558215614a48579182015b82811115614a47578251825591602001919060010190614a2c565b5b509050614a559190614af4565b5090565b828054828255906000526020600020908101928215614aa8579160200282015b82811115614aa7578251829080519060200190614a979291906149d3565b5091602001919060010190614a79565b5b509050614ab59190614b11565b5090565b604051806040016040528060608152602001606081525090565b60405180606001604052806060815260200160608152602001606081525090565b5b80821115614b0d576000816000905550600101614af5565b5090565b5b80821115614b315760008181614b289190614b35565b50600101614b12565b5090565b508054614b4190616793565b6000825580601f10614b535750614b72565b601f016020900490600052602060002090810190614b719190614af4565b5b50565b6000614b88614b83846165ea565b6165c5565b90508083825260208201905082856020860282011115614ba757600080fd5b60005b85811015614bf157813567ffffffffffffffff811115614bc957600080fd5b808601614bd68982614c8d565b85526020850194506020840193505050600181019050614baa565b5050509392505050565b6000614c0e614c0984616616565b6165c5565b905082815260208101848484011115614c2657600080fd5b614c31848285616751565b509392505050565b600081359050614c48816168dd565b92915050565b600082601f830112614c5f57600080fd5b8135614c6f848260208601614b75565b91505092915050565b600081359050614c87816168f4565b92915050565b600082601f830112614c9e57600080fd5b8135614cae848260208601614bfb565b91505092915050565b600060608284031215614cc957600080fd5b614cd360606165c5565b9050600082013567ffffffffffffffff811115614cef57600080fd5b614cfb84828501614c8d565b600083015250602082013567ffffffffffffffff811115614d1b57600080fd5b614d2784828501614c8d565b602083015250604082013567ffffffffffffffff811115614d4757600080fd5b614d5384828501614c8d565b60408301525092915050565b600060408284031215614d7157600080fd5b614d7b60406165c5565b9050600082013567ffffffffffffffff811115614d9757600080fd5b614da384828501614c8d565b600083015250602082013567ffffffffffffffff811115614dc357600080fd5b614dcf84828501614c8d565b60208301525092915050565b60006107008284031215614dee57600080fd5b614df96107006165c5565b90506000614e09848285016156f9565b6000830152506020614e1d84828501614c39565b602083015250604082013567ffffffffffffffff811115614e3d57600080fd5b614e4984828501614c8d565b604083015250606082013567ffffffffffffffff811115614e6957600080fd5b614e7584828501614c8d565b606083015250608082013567ffffffffffffffff811115614e9557600080fd5b614ea184828501614c8d565b60808301525060a082013567ffffffffffffffff811115614ec157600080fd5b614ecd84828501614c8d565b60a08301525060c082013567ffffffffffffffff811115614eed57600080fd5b614ef984828501614c8d565b60c08301525060e082013567ffffffffffffffff811115614f1957600080fd5b614f2584828501614c8d565b60e08301525061010082013567ffffffffffffffff811115614f4657600080fd5b614f5284828501614c8d565b6101008301525061012082013567ffffffffffffffff811115614f7457600080fd5b614f8084828501614c8d565b6101208301525061014082013567ffffffffffffffff811115614fa257600080fd5b614fae84828501614c8d565b61014083015250610160614fc4848285016156f9565b6101608301525061018082013567ffffffffffffffff811115614fe657600080fd5b614ff284828501614c8d565b610180830152506101a082013567ffffffffffffffff81111561501457600080fd5b61502084828501614c8d565b6101a0830152506101c0615036848285016156f9565b6101c0830152506101e061504c84828501614c78565b6101e08301525061020082013567ffffffffffffffff81111561506e57600080fd5b61507a84828501614c8d565b6102008301525061022082013567ffffffffffffffff81111561509c57600080fd5b6150a884828501614c8d565b610220830152506102406150be848285016156f9565b6102408301525061026082013567ffffffffffffffff8111156150e057600080fd5b6150ec84828501614c8d565b6102608301525061028082013567ffffffffffffffff81111561510e57600080fd5b61511a84828501614c8d565b610280830152506102a061513084828501614c78565b6102a0830152506102c0615146848285016156f9565b6102c0830152506102e061515c848285016156f9565b6102e08301525061030082013567ffffffffffffffff81111561517e57600080fd5b61518a84828501614c8d565b6103008301525061032082013567ffffffffffffffff8111156151ac57600080fd5b6151b884828501614c8d565b6103208301525061034082013567ffffffffffffffff8111156151da57600080fd5b6151e684828501614c8d565b6103408301525061036082013567ffffffffffffffff81111561520857600080fd5b61521484828501614c8d565b6103608301525061038082013567ffffffffffffffff81111561523657600080fd5b61524284828501614c8d565b610380830152506103a082013567ffffffffffffffff81111561526457600080fd5b61527084828501614c8d565b6103a0830152506103c082013567ffffffffffffffff81111561529257600080fd5b61529e84828501614c8d565b6103c0830152506103e082013567ffffffffffffffff8111156152c057600080fd5b6152cc84828501614c8d565b6103e08301525061040082013567ffffffffffffffff8111156152ee57600080fd5b6152fa84828501614c8d565b6104008301525061042082013567ffffffffffffffff81111561531c57600080fd5b61532884828501614c8d565b6104208301525061044082013567ffffffffffffffff81111561534a57600080fd5b61535684828501614c8d565b6104408301525061046082013567ffffffffffffffff81111561537857600080fd5b61538484828501614c8d565b6104608301525061048082013567ffffffffffffffff8111156153a657600080fd5b6153b284828501614c8d565b610480830152506104a082013567ffffffffffffffff8111156153d457600080fd5b6153e084828501614c8d565b6104a0830152506104c082013567ffffffffffffffff81111561540257600080fd5b61540e84828501614c8d565b6104c0830152506104e082013567ffffffffffffffff81111561543057600080fd5b61543c84828501614c8d565b6104e083015250610500615452848285016156f9565b61050083015250610520615468848285016156f9565b6105208301525061054082013567ffffffffffffffff81111561548a57600080fd5b61549684828501614c8d565b6105408301525061056082013567ffffffffffffffff8111156154b857600080fd5b6154c484828501614c8d565b6105608301525061058082013567ffffffffffffffff8111156154e657600080fd5b6154f284828501614c8d565b610580830152506105a082013567ffffffffffffffff81111561551457600080fd5b61552084828501614c8d565b6105a0830152506105c082013567ffffffffffffffff81111561554257600080fd5b61554e84828501614c8d565b6105c0830152506105e082013567ffffffffffffffff81111561557057600080fd5b61557c84828501614c8d565b6105e08301525061060082013567ffffffffffffffff81111561559e57600080fd5b6155aa84828501614c8d565b6106008301525061062082013567ffffffffffffffff8111156155cc57600080fd5b6155d884828501614c8d565b6106208301525061064082013567ffffffffffffffff8111156155fa57600080fd5b61560684828501614c8d565b6106408301525061066082013567ffffffffffffffff81111561562857600080fd5b61563484828501614c8d565b6106608301525061068082013567ffffffffffffffff81111561565657600080fd5b61566284828501614c4e565b610680830152506106a082013567ffffffffffffffff81111561568457600080fd5b61569084828501614c4e565b6106a0830152506106c082013567ffffffffffffffff8111156156b257600080fd5b6156be84828501614d5f565b6106c0830152506106e082013567ffffffffffffffff8111156156e057600080fd5b6156ec84828501614cb7565b6106e08301525092915050565b6000813590506157088161690b565b92915050565b60006020828403121561572057600080fd5b600082013567ffffffffffffffff81111561573a57600080fd5b61574684828501614ddb565b91505092915050565b60006020828403121561576157600080fd5b600061576f848285016156f9565b91505092915050565b600061578483836158b7565b905092915050565b60006157988383615992565b905092915050565b6157a981616709565b82525050565b6157b881616709565b82525050565b60006157c982616667565b6157d381856166a2565b9350836020820285016157e585616647565b8060005b8581101561582157848403895281516158028582615778565b945061580d83616688565b925060208a019950506001810190506157e9565b50829750879550505050505092915050565b600061583e82616672565b61584881856166b3565b93508360208202850161585a85616657565b8060005b858110156158965784840389528151615877858261578c565b945061588283616695565b925060208a0199505060018101905061585e565b50829750879550505050505092915050565b6158b18161671b565b82525050565b60006158c28261667d565b6158cc81856166c4565b93506158dc818560208601616760565b6158e5816168cc565b840191505092915050565b6000606083016000830151848203600086015261590d82826158b7565b9150506020830151848203602086015261592782826158b7565b9150506040830151848203604086015261594182826158b7565b9150508091505092915050565b6000604083016000830151848203600086015261596b82826158b7565b9150506020830151848203602086015261598582826158b7565b9150508091505092915050565b6000610700830160008301516159ab600086018261653a565b5060208301516159be60208601826157a0565b50604083015184820360408601526159d682826158b7565b915050606083015184820360608601526159f082826158b7565b91505060808301518482036080860152615a0a82826158b7565b91505060a083015184820360a0860152615a2482826158b7565b91505060c083015184820360c0860152615a3e82826158b7565b91505060e083015184820360e0860152615a5882826158b7565b915050610100830151848203610100860152615a7482826158b7565b915050610120830151848203610120860152615a9082826158b7565b915050610140830151848203610140860152615aac82826158b7565b915050610160830151615ac361016086018261653a565b50610180830151848203610180860152615add82826158b7565b9150506101a08301518482036101a0860152615af982826158b7565b9150506101c0830151615b106101c086018261653a565b506101e0830151615b256101e08601826158a8565b50610200830151848203610200860152615b3f82826158b7565b915050610220830151848203610220860152615b5b82826158b7565b915050610240830151615b7261024086018261653a565b50610260830151848203610260860152615b8c82826158b7565b915050610280830151848203610280860152615ba882826158b7565b9150506102a0830151615bbf6102a08601826158a8565b506102c0830151615bd46102c086018261653a565b506102e0830151615be96102e086018261653a565b50610300830151848203610300860152615c0382826158b7565b915050610320830151848203610320860152615c1f82826158b7565b915050610340830151848203610340860152615c3b82826158b7565b915050610360830151848203610360860152615c5782826158b7565b915050610380830151848203610380860152615c7382826158b7565b9150506103a08301518482036103a0860152615c8f82826158b7565b9150506103c08301518482036103c0860152615cab82826158b7565b9150506103e08301518482036103e0860152615cc782826158b7565b915050610400830151848203610400860152615ce382826158b7565b915050610420830151848203610420860152615cff82826158b7565b915050610440830151848203610440860152615d1b82826158b7565b915050610460830151848203610460860152615d3782826158b7565b915050610480830151848203610480860152615d5382826158b7565b9150506104a08301518482036104a0860152615d6f82826158b7565b9150506104c08301518482036104c0860152615d8b82826158b7565b9150506104e08301518482036104e0860152615da782826158b7565b915050610500830151615dbe61050086018261653a565b50610520830151615dd361052086018261653a565b50610540830151848203610540860152615ded82826158b7565b915050610560830151848203610560860152615e0982826158b7565b915050610580830151848203610580860152615e2582826158b7565b9150506105a08301518482036105a0860152615e4182826158b7565b9150506105c08301518482036105c0860152615e5d82826158b7565b9150506105e08301518482036105e0860152615e7982826158b7565b915050610600830151848203610600860152615e9582826158b7565b915050610620830151848203610620860152615eb182826158b7565b915050610640830151848203610640860152615ecd82826158b7565b915050610660830151848203610660860152615ee982826158b7565b915050610680830151848203610680860152615f0582826157be565b9150506106a08301518482036106a0860152615f2182826157be565b9150506106c08301518482036106c0860152615f3d828261594e565b9150506106e08301518482036106e0860152615f5982826158f0565b9150508091505092915050565b600061070083016000830151615f7f600086018261653a565b506020830151615f9260208601826157a0565b5060408301518482036040860152615faa82826158b7565b91505060608301518482036060860152615fc482826158b7565b91505060808301518482036080860152615fde82826158b7565b91505060a083015184820360a0860152615ff882826158b7565b91505060c083015184820360c086015261601282826158b7565b91505060e083015184820360e086015261602c82826158b7565b91505061010083015184820361010086015261604882826158b7565b91505061012083015184820361012086015261606482826158b7565b91505061014083015184820361014086015261608082826158b7565b91505061016083015161609761016086018261653a565b506101808301518482036101808601526160b182826158b7565b9150506101a08301518482036101a08601526160cd82826158b7565b9150506101c08301516160e46101c086018261653a565b506101e08301516160f96101e08601826158a8565b5061020083015184820361020086015261611382826158b7565b91505061022083015184820361022086015261612f82826158b7565b91505061024083015161614661024086018261653a565b5061026083015184820361026086015261616082826158b7565b91505061028083015184820361028086015261617c82826158b7565b9150506102a08301516161936102a08601826158a8565b506102c08301516161a86102c086018261653a565b506102e08301516161bd6102e086018261653a565b506103008301518482036103008601526161d782826158b7565b9150506103208301518482036103208601526161f382826158b7565b91505061034083015184820361034086015261620f82826158b7565b91505061036083015184820361036086015261622b82826158b7565b91505061038083015184820361038086015261624782826158b7565b9150506103a08301518482036103a086015261626382826158b7565b9150506103c08301518482036103c086015261627f82826158b7565b9150506103e08301518482036103e086015261629b82826158b7565b9150506104008301518482036104008601526162b782826158b7565b9150506104208301518482036104208601526162d382826158b7565b9150506104408301518482036104408601526162ef82826158b7565b91505061046083015184820361046086015261630b82826158b7565b91505061048083015184820361048086015261632782826158b7565b9150506104a08301518482036104a086015261634382826158b7565b9150506104c08301518482036104c086015261635f82826158b7565b9150506104e08301518482036104e086015261637b82826158b7565b91505061050083015161639261050086018261653a565b506105208301516163a761052086018261653a565b506105408301518482036105408601526163c182826158b7565b9150506105608301518482036105608601526163dd82826158b7565b9150506105808301518482036105808601526163f982826158b7565b9150506105a08301518482036105a086015261641582826158b7565b9150506105c08301518482036105c086015261643182826158b7565b9150506105e08301518482036105e086015261644d82826158b7565b91505061060083015184820361060086015261646982826158b7565b91505061062083015184820361062086015261648582826158b7565b9150506106408301518482036106408601526164a182826158b7565b9150506106608301518482036106608601526164bd82826158b7565b9150506106808301518482036106808601526164d982826157be565b9150506106a08301518482036106a08601526164f582826157be565b9150506106c08301518482036106c0860152616511828261594e565b9150506106e08301518482036106e086015261652d82826158f0565b9150508091505092915050565b61654381616747565b82525050565b61655281616747565b82525050565b600060408201905061656d60008301856157af565b61657a6020830184616549565b9392505050565b6000602082019050818103600083015261659b8184615833565b905092915050565b600060208201905081810360008301526165bd8184615f66565b905092915050565b60006165cf6165e0565b90506165db82826167c5565b919050565b6000604051905090565b600067ffffffffffffffff8211156166055761660461689d565b5b602082029050602081019050919050565b600067ffffffffffffffff8211156166315761663061689d565b5b61663a826168cc565b9050602081019050919050565b6000819050602082019050919050565b6000819050602082019050919050565b600081519050919050565b600081519050919050565b600081519050919050565b6000602082019050919050565b6000602082019050919050565b600082825260208201905092915050565b600082825260208201905092915050565b600082825260208201905092915050565b60006166e082616747565b91506166eb83616747565b9250828210156166fe576166fd61683f565b5b828203905092915050565b600061671482616727565b9050919050565b60008115159050919050565b600073ffffffffffffffffffffffffffffffffffffffff82169050919050565b6000819050919050565b82818337600083830152505050565b60005b8381101561677e578082015181840152602081019050616763565b8381111561678d576000848401525b50505050565b600060028204905060018216806167ab57607f821691505b602082108114156167bf576167be61686e565b5b50919050565b6167ce826168cc565b810181811067ffffffffffffffff821117156167ed576167ec61689d565b5b80604052505050565b600061680182616747565b91507fffffffffffffffffffffffffffffffffffffffffffffffffffffffffffffffff8214156168345761683361683f565b5b600182019050919050565b7f4e487b7100000000000000000000000000000000000000000000000000000000600052601160045260246000fd5b7f4e487b7100000000000000000000000000000000000000000000000000000000600052602260045260246000fd5b7f4e487b7100000000000000000000000000000000000000000000000000000000600052604160045260246000fd5b6000601f19601f8301169050919050565b6168e681616709565b81146168f157600080fd5b50565b6168fd8161671b565b811461690857600080fd5b50565b61691481616747565b811461691f57600080fd5b5056fea2646970667358221220bd271c84b539678abd9a7e96bedd4eae60473092a88fe60f456b2f9ecd7be01264736f6c63430008040033",
  "linkReferences": {},
  "deployedLinkReferences": {}
}